{
  "_format": "hh-sol-artifact-1",
  "contractName": "RemoteVoting",
  "sourceName": "contracts/RemoteVoting.sol",
  "abi": [
    {
      "inputs": [],
      "stateMutability": "nonpayable",
      "type": "constructor"
    },
    {
      "anonymous": false,
      "inputs": [
        {
          "indexed": true,
          "internalType": "uint256",
          "name": "candidateId",
          "type": "uint256"
        }
      ],
      "name": "VotedEvent",
      "type": "event"
    },
    {
      "inputs": [
        {
          "internalType": "uint256",
          "name": "",
          "type": "uint256"
        }
      ],
      "name": "candidates",
      "outputs": [
        {
          "internalType": "uint256",
          "name": "id",
          "type": "uint256"
        },
        {
          "internalType": "string",
          "name": "name",
          "type": "string"
        },
        {
          "internalType": "uint256",
          "name": "voteCount",
          "type": "uint256"
        }
      ],
      "stateMutability": "view",
      "type": "function"
    },
    {
      "inputs": [],
      "name": "getAllCandidates",
      "outputs": [
        {
          "components": [
            {
              "internalType": "uint256",
              "name": "id",
              "type": "uint256"
            },
            {
              "internalType": "string",
              "name": "name",
              "type": "string"
            },
            {
              "internalType": "uint256",
              "name": "voteCount",
              "type": "uint256"
            }
          ],
          "internalType": "struct RemoteVoting.Candidate[]",
          "name": "",
          "type": "tuple[]"
        }
      ],
      "stateMutability": "view",
      "type": "function"
    },
    {
      "inputs": [],
      "name": "getCandidateCount",
      "outputs": [
        {
          "internalType": "uint256",
          "name": "",
          "type": "uint256"
        }
      ],
      "stateMutability": "view",
      "type": "function"
    },
    {
      "inputs": [
        {
          "internalType": "uint256",
          "name": "_candidateId",
          "type": "uint256"
        }
      ],
      "name": "vote",
      "outputs": [],
      "stateMutability": "nonpayable",
      "type": "function"
    },
    {
      "inputs": [
        {
          "internalType": "address",
          "name": "",
          "type": "address"
        }
      ],
      "name": "voters",
      "outputs": [
        {
          "internalType": "bool",
          "name": "",
          "type": "bool"
        }
      ],
      "stateMutability": "view",
      "type": "function"
    }
  ],
  "bytecode": "0x60806040523480156200001157600080fd5b50620000586040518060400160405280601c81526020017f426861726174697961204a616e6174612050617274792028424a5029000000008152506200017660201b60201c565b6200009e6040518060400160405280601e81526020017f496e6469616e204e6174696f6e616c20436f6e67726573732028494e432900008152506200017660201b60201c565b620000e46040518060400160405280601581526020017f41616d204161646d6920506172747920284141502900000000000000000000008152506200017660201b60201c565b6200012a6040518060400160405280601f81526020017f44726176696461204d756e6e65747261204b617a686167616d2028444d4b29008152506200017660201b60201c565b620001706040518060400160405280601881526020017f4e6f746120284e6f6e65206f66207468652041626f76652900000000000000008152506200017660201b60201c565b6200030f565b60016040518060600160405280600180549050815260200183815260200160008152509080600181540180825580915050600190039060005260206000209060030201600090919091909150600082015181600001556020820151816001019080519060200190620001ea929190620001fa565b5060408201518160020155505050565b8280546200020890620002aa565b90600052602060002090601f0160209004810192826200022c576000855562000278565b82601f106200024757805160ff191683800117855562000278565b8280016001018555821562000278579182015b82811115620002775782518255916020019190600101906200025a565b5b5090506200028791906200028b565b5090565b5b80821115620002a65760008160009055506001016200028c565b5090565b60006002820490506001821680620002c357607f821691505b60208210811415620002da57620002d9620002e0565b5b50919050565b7f4e487b7100000000000000000000000000000000000000000000000000000000600052602260045260246000fd5b610a3e806200031f6000396000f3fe608060405234801561001057600080fd5b50600436106100575760003560e01c80630121b93f1461005c5780632e6997fe1461007857806330a56347146100965780633477ee2e146100b4578063a3ec138d146100e6575b600080fd5b61007660048036038101906100719190610518565b610116565b005b6100806102d1565b60405161008d9190610739565b60405180910390f35b61009e6103d6565b6040516100ab91906107b6565b60405180910390f35b6100ce60048036038101906100c99190610518565b6103e3565b6040516100dd939291906107d1565b60405180910390f35b61010060048036038101906100fb91906104ef565b6104a5565b60405161010d919061075b565b60405180910390f35b6000803373ffffffffffffffffffffffffffffffffffffffff1673ffffffffffffffffffffffffffffffffffffffff16815260200190815260200160002060009054906101000a900460ff16156101a2576040517f08c379a000000000000000000000000000000000000000000000000000000000815260040161019990610776565b60405180910390fd5b60018054905081106101e9576040517f08c379a00000000000000000000000000000000000000000000000000000000081526004016101e090610796565b60405180910390fd5b60016000803373ffffffffffffffffffffffffffffffffffffffff1673ffffffffffffffffffffffffffffffffffffffff16815260200190815260200160002060006101000a81548160ff0219169083151502179055506001818154811061027a577f4e487b7100000000000000000000000000000000000000000000000000000000600052603260045260246000fd5b9060005260206000209060030201600201600081548092919061029c90610922565b9190505550807fe447c5464cb203c1da94b4db8588d3cbf313ce4a489122f6b88e87f465b2810e60405160405180910390a250565b60606001805480602002602001604051908101604052809291908181526020016000905b828210156103cd578382906000526020600020906003020160405180606001604052908160008201548152602001600182018054610332906108f0565b80601f016020809104026020016040519081016040528092919081815260200182805461035e906108f0565b80156103ab5780601f10610380576101008083540402835291602001916103ab565b820191906000526020600020905b81548152906001019060200180831161038e57829003601f168201915b50505050508152602001600282015481525050815260200190600101906102f5565b50505050905090565b6000600180549050905090565b600181815481106103f357600080fd5b906000526020600020906003020160009150905080600001549080600101805461041c906108f0565b80601f0160208091040260200160405190810160405280929190818152602001828054610448906108f0565b80156104955780601f1061046a57610100808354040283529160200191610495565b820191906000526020600020905b81548152906001019060200180831161047857829003601f168201915b5050505050908060020154905083565b60006020528060005260406000206000915054906101000a900460ff1681565b6000813590506104d4816109da565b92915050565b6000813590506104e9816109f1565b92915050565b60006020828403121561050157600080fd5b600061050f848285016104c5565b91505092915050565b60006020828403121561052a57600080fd5b6000610538848285016104da565b91505092915050565b600061054d83836106cb565b905092915050565b60006105608261081f565b61056a8185610842565b93508360208202850161057c8561080f565b8060005b858110156105b857848403895281516105998582610541565b94506105a483610835565b925060208a01995050600181019050610580565b50829750879550505050505092915050565b6105d381610887565b82525050565b60006105e48261082a565b6105ee8185610853565b93506105fe8185602086016108bd565b610607816109c9565b840191505092915050565b600061061d8261082a565b6106278185610864565b93506106378185602086016108bd565b610640816109c9565b840191505092915050565b6000610658601783610864565b91507f596f75206861766520616c726561647920766f7465642e0000000000000000006000830152602082019050919050565b6000610698601583610864565b91507f496e76616c69642063616e6469646174652049442e00000000000000000000006000830152602082019050919050565b60006060830160008301516106e3600086018261071b565b50602083015184820360208601526106fb82826105d9565b9150506040830151610710604086018261071b565b508091505092915050565b610724816108b3565b82525050565b610733816108b3565b82525050565b600060208201905081810360008301526107538184610555565b905092915050565b600060208201905061077060008301846105ca565b92915050565b6000602082019050818103600083015261078f8161064b565b9050919050565b600060208201905081810360008301526107af8161068b565b9050919050565b60006020820190506107cb600083018461072a565b92915050565b60006060820190506107e6600083018661072a565b81810360208301526107f88185610612565b9050610807604083018461072a565b949350505050565b6000819050602082019050919050565b600081519050919050565b600081519050919050565b6000602082019050919050565b600082825260208201905092915050565b600082825260208201905092915050565b600082825260208201905092915050565b600061088082610893565b9050919050565b60008115159050919050565b600073ffffffffffffffffffffffffffffffffffffffff82169050919050565b6000819050919050565b60005b838110156108db5780820151818401526020810190506108c0565b838111156108ea576000848401525b50505050565b6000600282049050600182168061090857607f821691505b6020821081141561091c5761091b61099a565b5b50919050565b600061092d826108b3565b91507fffffffffffffffffffffffffffffffffffffffffffffffffffffffffffffffff8214156109605761095f61096b565b5b600182019050919050565b7f4e487b7100000000000000000000000000000000000000000000000000000000600052601160045260246000fd5b7f4e487b7100000000000000000000000000000000000000000000000000000000600052602260045260246000fd5b6000601f19601f8301169050919050565b6109e381610875565b81146109ee57600080fd5b50565b6109fa816108b3565b8114610a0557600080fd5b5056fea2646970667358221220d3e3d31e9ba3f4bd01033abe0ece478a551bf6057394c87eb693cf66a931b63064736f6c63430008000033",
  "linkReferences": {},
  "deployedLinkReferences": {}
}